:020000040800F2
:100000000004002047010008757A0008777A00088C
:100010007B7A00087F7A0008837A000800000000DD
:10002000000000000000000000000000877A0008C7
:10003000897A0008000000008B7A00088D7A000899
:1000400067010008670100086701000867010008F0
:1000500067010008670100086701000867010008E0
:1000600067010008670100086701000867010008D0
:1000700067010008670100086701000867010008C0
:1000800067010008D37A00086701000867010008CB
:1000900067010008670100086701000867010008A0
:1000A0006701000867010008670100086701000890
:1000B0009F7A000867010008B97A00088F7A000863
:1000C000977A0008670100086701000867010008C7
:1000D0006701000867010008670100086701000860
:1000E0006701000867010008670100086701000850
:1000F0006701000867010008670100086701000840
:10010000670100086701000867010008670100082F
:10011000670100086701000867010008670100081F
:10012000670100086701000867010008670100080F
:10013000DFF80CD00BF0FEFA00480047057A000803
:10014000284B0020704708488047084981F30888F9
:1001500007480047FEE7FEE7FEE7FEE7FEE7FEE7AB
:10016000FEE7FEE7FEE7FEE745010008284B00201A
:100170003101000810B50446B4F5E06F0BD0B4F5BA
:10018000C06F08D0B4F5A06F05D0B4F5806F02D071
:10019000B4F5407F00D103E0622162A007F061FC6A
:1001A0006B4820436B49086010BD2DE9F0410446BF
:1001B000002500270F26E07810B1E078012800D153
:1001C00003E0742157A007F04CFC6078102800DA97
:1001D00003E0752153A007F044FCA078102800DA52
:1001E00003E076214FA007F03CFCE07848B3594883
:1001F000006800F4E060C0F5E0604FEA1025C5F14A
:10020000040726FA05F6607800FA07F5A07800EAF8
:10021000060040EA05054FEA05154F482278855447
:10022000207800F01F014FF0010000FA01F0217862
:100230004FEA61114FF0E02202EB8101C1F80001A9
:1002400009E0207800F01F0101208840434922780E
:10025000521141F82200BDE8F08170B504460D4608
:10026000B4F1005F02D0B4F1006F00D103E09D2132
:100270002CA007F0F6FB3A48854200D203E09E210D
:1002800028A007F0EEFB374905EA01002043364974
:10029000086070BD70B504460D46102C03D0042CC8
:1002A00001D0022C00D103E0B0211EA007F0D9FB41
:1002B0000DB1012D00D103E0B1211AA007F0D1FB4F
:1002C00045B12A48006840EA04004FF0E021C1F837
:1002D000100D07E02548006820EA04004FF0E021F7
:1002E000C1F8100D70BD10B50446042C01D0601D7E
:1002F00000D103E0C8210BA007F0B3FB042C08D108
:100300004FF0E020006940F004004FF0E021086168
:1003100007E04FF0E020006920F004004FF0E021FA
:10032000086110BD2E2E5C53544D33324631307867
:100330005F5374645065726970685F447269766572
:10034000725C7372635C6D6973632E6300000000FE
:100350000000FA050CED00E000E400E080E100E0C0
:10036000FFFF0F0080FFFF1F08ED00E010ED00E031
:1003700010B50446F948844205D0F948844202D0B9
:10038000F848844200D103E0B521F7A007F069FBEB
:10039000F248844208D10121401503F0D5FE002126
:1003A000601503F0D1FE17E0ED48844208D1012129
:1003B000001503F0C9FE0021201503F0C5FE0BE077
:1003C000E848844208D10121C80303F0BDFE0021A2
:1003D0004FF4004003F0B8FE10BD2DE9F041054692
:1003E0000C4600260027DD48854205D0DC488542C2
:1003F00002D0DC48854200D103E0DE21DAA007F01C
:1004000030FB206818B32068B0F5803F1FD020680B
:10041000B0F5003F1BD02068B0F5403F17D02068F2
:10042000B0F5802F13D02068B0F5A02F0FD0206832
:10043000B0F5C02F0BD02068B0F5E02F07D02068B2
:10044000B0F5002F03D02068B0F5102F00D103E0E5
:10045000DF21C5A007F005FB207910B12079012824
:1004600000D103E0E021C0A007F0FBFA607910B1F1
:100470006079012800D103E0E121BBA007F0F1FA87
:10048000A06888B3A068B0F5003F2DD0A068B0F593
:10049000802F29D0A068B0F5C02F25D0A068B0F576
:1004A000002F21D0A068B0F5202F1DD0A068B0F596
:1004B000402F19D0A068B0F5602F15D0A06898B172
:1004C000A068B0F5003F0FD0A068B0F5C02F0BD0EA
:1004D000A068B0F5002F07D0A068B0F5202F03D09A
:1004E000A068B0F5402F00D103E0E2219EA007F004
:1004F000B8FAE06818B1E068B0F5006F00D103E029
:10050000E32199A007F0ADFA207C012803DB207CD1
:10051000102800DC03E0E42193A007F0A2FA6E6843
:100520009E4806402179206840EA012006436E601B
:10053000AE689B480640D4E902100843617940EA5E
:1005400041000643AE60EE6A26F47006207C401E31
:10055000C0B2074346EA0756EE62BDE8F0810021CB
:100560000160017141718160C160012101747047B6
:1005700070B504460D467948844205D078488442D7
:1005800002D07848844200D104E040F22D1176A0D8
:1005900007F067FA0DB1012D00D104E04FF4977117
:1005A00071A007F05EFA25B1A06840F00100A060DC
:1005B00003E0A06820F00100A06070BD70B50446A3
:1005C0000D466648844202D06648844200D104E069
:1005D0004FF4A37164A007F044FA0DB1012D00D1CE
:1005E00004E040F2471160A007F03BFA25B1A06893
:1005F00040F48070A06003E0A06820F48070A060E8
:1006000070BD2DE9F04104460D46164600275348BB
:10061000844205D05248844202D05248844200D1DC
:1006200004E04FF4B27150A007F01BFA0EB1012E96
:1006300000D104E040F265114BA007F012FA4FF62A
:100640001F00054201D105B104E04FF4B37146A08B
:1006500007F007FAEFB21EB160683843606002E04D
:100660006068B8436060BDE8F08110B504463B485F
:10067000844205D03A48844202D03A48844200D1AC
:1006800004E040F27D1138A007F0EBF9A06840F0DB
:100690000800A06010BD70B5044600252F488442B4
:1006A00005D02F48844202D02E48844200D104E075
:1006B00040F28B112CA007F0D4F9A06810F0080FBD
:1006C00001D0012500E00025284670BD10B5044684
:1006D0002248844205D02248844202D021488442E4
:1006E00000D104E040F2A3111FA007F0BAF9A068FE
:1006F00040F00400A06010BD70B504460025174806
:10070000844205D01648844202D01648844200D163
:1007100004E040F2B11114A007F0A3F9A06810F0B2
:10072000040F01D0012500E00025284670BD70B5FA
:1007300004460D460948844205D00948844202D047
:100740000848844200D104E040F2CB1106A007F033
:1007500088F90DB1012D25D12AE0000000240140C7
:1007600000280140003C01402E2E5C53544D333292
:10077000463130785F5374645065726970685F44C5
:1007800072697665725C7372635C73746D33326622
:100790003130785F6164632E63000000FFFEF0FF7C
:1007A000FDF7F1FF4FF4E671AFF2440007F059F99D
:1007B00025B1A06840F4A000A06003E0A06820F488
:1007C000A000A06070BD70B504460025FF488442BB
:1007D00005D0FF48844202D0FE48844200D105E0A3
:1007E0004FF4F271AFF2800007F03BF9A06810F40B
:1007F000800F01D0012500E00025284670BD2DE9BD
:10080000F04104460D4600260027F048844205D0FA
:10081000EF48844202D0EF48844200D105E040F224
:100820000121AFF2BC0007F01CF9012D02DB082DFD
:1008300000DC05E040F20221AFF2D40007F011F92C
:10084000666826F460466F1E46EA47366660BDE875
:10085000F08170B504460D46DC48844205D0DC4882
:10086000844202D0DB48844200D105E040F21A21E4
:10087000AFF20C1007F0F5F80DB1012D00D105E035
:1008800040F21B21AFF2201007F0EBF825B16068B1
:1008900040F40060606003E0606820F40060606025
:1008A00070BD2DE9F04706460C46174698460025D0
:1008B000A946C648864205D0C548864202D0C548EA
:1008C000864200D105E040F25121AFF2641007F0FA
:1008D000C8F80CB3012C1FD0022C1DD0032C1BD048
:1008E000042C19D0052C17D0062C15D0072C13D0AA
:1008F000082C11D0092C0FD00A2C0DD00B2C0BD0AA
:100900000C2C09D00D2C07D00E2C05D00F2C03D0A9
:10091000102C01D0112C00D105E040F25221AFF291
:10092000B81007F09EF8012F02DB102F00DC05E065
:1009300040F25321AFF2D01007F093F8B8F1000F56
:1009400014D0B8F1010F11D0B8F1020F0ED0B8F1E8
:10095000030F0BD0B8F1040F08D0B8F1050F05D084
:10096000B8F1060F02D0B8F1070F00D105E04FF43F
:100970001571AFF20C2007F074F8092C13DDF5683F
:10098000A4F10A0000EB4001072000FA01F925EA72
:100990000905A4F10A0000EB400008FA00F945EA55
:1009A0000905F5600EE0356904EB4401072000FA03
:1009B00001F925EA090504EB440008FA00F945EAC3
:1009C00009053561072F11DA756B781E00EB800180
:1009D0001F2000FA01F925EA0905781E00EB8000C6
:1009E00004FA00F945EA0905756326E00D2F11DACE
:1009F000356BF81F00EB80011F2000FA01F925EA92
:100A00000905F81F00EB800004FA00F945EA090522
:100A1000356312E0F56AA7F10D0000EB80011F209D
:100A200000FA01F925EA0905A7F10D0000EB8000A5
:100A300004FA00F945EA0905F562BDE8F08770B5EA
:100A400004460D466148844205D06148844202D084
:100A50006048844200D105E04FF42C71AFF2F820D9
:100A600006F0FFFF0DB1012D00D105E040F2B121EC
:100A7000AFF20C3006F0F5FF25B1A06840F480100D
:100A8000A06003E0A06820F48010A06070BD10B5E5
:100A900004464E48844205D04D48844202D04D4819
:100AA000844200D105E040F2C621AFF2443006F0A6
:100AB000D8FFE06C80B210BD47480068704770B541
:100AC00004460D464148844205D04148844202D044
:100AD0004048844200D105E04FF43871AFF27830DD
:100AE00006F0BFFF0DB1012D00D105E040F2E1217C
:100AF000AFF28C3006F0B5FF25B1606840F480603D
:100B0000606003E0606820F48060606070BD70B574
:100B100004460D462D48844205D02D48844202D01B
:100B20002C48844200D105E040F2FA21AFF2C830EF
:100B300006F097FF0DB1012D00D105E040F2FB2139
:100B4000AFF2DC3006F08DFF25B1606840F48050D4
:100B5000606003E0606820F48050606070BD70B534
:100B600005460C4600261948854205D0184885429E
:100B700002D01848854200D105E040F22231AFF2A0
:100B8000184006F06EFF4CB3B4F5805F2AD0B4F580
:100B9000005F27D0B4F5405F24D0B4F5804F21D05A
:100BA000B4F5A04F1ED0B4F5C04F1BD0B4F5E04F44
:100BB00018D0B4F5005F15D0B4F5405F12D0B4F58D
:100BC000804F0FD0B4F5A04F0CD008E000240140B6
:100BD00000280140003C01404C24014002E0B4F5F3
:100BE000C04F00D105E040F22331AFF2844006F05F
:100BF00038FFAE6826F4E0462643AE6070BD70B59F
:100C000004460D46FC48844205D0FC48844202D08C
:100C1000FB48844200D105E040F23A31AFF2B840DF
:100C200006F01FFF0DB1012D00D105E040F23B3170
:100C3000AFF2CC4006F015FF25B1A06840F40040AB
:100C4000A06003E0A06820F40040A06070BD70B513
:100C500004460D46E848844205D0E848844202D064
:100C6000E748844200D105E040F25331AFF208502A
:100C700006F0F7FE0DB1012D00D105E04FF45571DE
:100C8000AFF21C5006F0EDFE25B1A06840F4021052
:100C9000A06003E0A06820F40210A06070BD70B5F1
:100CA00004460025D448844205D0D448844202D06A
:100CB000D348844200D105E04FF45B71AFF2585045
:100CC00006F0CFFEA06810F4001F01D0012500E05F
:100CD0000025284670BD2DE9F04706460C46914692
:100CE0001D460027B846BA46C348864205D0C348C9
:100CF000864202D0C248864200D105E040F2A531CA
:100D0000AFF29C5006F0ADFE0CB3012C1FD0022CAC
:100D10001DD0032C1BD0042C19D0052C17D0062C69
:100D200015D0072C13D0082C11D0092C0FD00A2C69
:100D30000DD00B2C0BD00C2C09D00D2C07D00E2C69
:100D400005D00F2C03D0102C01D0112C00D105E0C0
:100D500040F2A631AFF2F05006F083FEB9F1010F78
:100D600003DBB9F1040F00DC05E040F2A731AFF27C
:100D7000086006F076FE6DB1012D0BD0022D09D072
:100D8000032D07D0042D05D0052D03D0062D01D04D
:100D9000072D00D105E04FF46A71AFF2346006F020
:100DA00060FE092C13DDF768A4F10A0000EB400196
:100DB000072000FA01F827EA0807A4F10A0000EB6F
:100DC000400005FA00F847EA0807F7600EE03769C7
:100DD00004EB4401072000FA01F827EA080704EBB6
:100DE000440005FA00F847EA08073761B76BC7F314
:100DF000015A09F103000AF10101401A00EB8001D8
:100E00001F2000FA01F827EA080709F103000AF198
:100E10000101401A00EB800004FA00F847EA0807D5
:100E2000B763BDE8F0872DE9F04104460D46002682
:100E300000277148844205D07048844202D070482F
:100E4000844200D105E040F2E531AFF2E46006F003
:100E500008FE012D02DB042D00DC05E040F2E63146
:100E6000AFF2FC6006F0FDFDA66B26F440166F1E87
:100E700046EA0756A663BDE8F0812DE9F041044635
:100E80000D46164600275C48844205D05B488442E4
:100E900002D05B48844200D105E040F20541AFF248
:100EA000387006F0DEFD142D05D0182D03D01C2D52
:100EB00001D0202D00D105E040F20641AFF258707C
:100EC00006F0CFFDB6F5805F00DA05E040F207419D
:100ED000AFF26C7006F0C5FD27462F443E60BDE8BA
:100EE000F08170B504460D4600264348844205D083
:100EF0004248844202D04248844200D105E04FF487
:100F00008461AFF29C7006F0ACFD142D05D0182D55
:100F100003D01C2D01D0202D00D105E040F221414D
:100F2000AFF2BC7006F09DFD264605F12800064490
:100F3000306880B270BD70B505460C4600262E485C
:100F4000854205D02D48854202D02D48854200D1EA
:100F500005E040F23D41AFF2F07006F082FD294815
:100F600084420FD0284884420CD02848844209D0BB
:100F7000B4F5000F06D0B4F5800F03D0B4F5400FE0
:100F800000D004B905E040F23E41AFF6240006F07F
:100F900068FD6E681D48C043064026436E6070BD04
:100FA00070B504460E4615461348844205D01348D2
:100FB000844202D01248844200D105E040F25641FA
:100FC000AFF65C0006F04DFDB6F5805F00DA05E097
:100FD00040F25741AFF6700006F043FDB5F5805F73
:100FE00000DA05E04FF48B61AFF6840006F039FDBE
:100FF0006662A56270BD0000002401400028014027
:10100000003C014000028000000240000002C000DD
:1010100070B505460C4600268348854205D08348B6
:10102000854202D08248854200D105E040F27C41F1
:10103000AFF6CC0006F015FD0CB3012C1FD0022C2E
:101040001DD0032C1BD0042C19D0052C17D0062C36
:1010500015D0072C13D0082C11D0092C0FD00A2C36
:101060000DD00B2C0BD00C2C09D00D2C07D00E2C36
:1010700005D00F2C03D0102C01D0112C00D105E08D
:1010800040F27D41AFF6201006F0EBFC6E6826F0D2
:101090001F0626436E6070BD10B504460CB1012CCE
:1010A00000D105E040F29141AFF6441006F0D9FCC2
:1010B0003CB16048006840F400005F49C1F8080492
:1010C00006E05C48006820F400005B49C1F80804B1
:1010D00010BD70B505460C4600265348854205D024
:1010E0005248854202D05248854200D105E040F284
:1010F000AE41AFF68C1006F0B4FC012C07D0022CE8
:1011000005D0042C03D0082C01D0102C00D105E010
:1011100040F2AF41AFF6B01006F0A3FC28682042C1
:1011200001D0012600E00026304670BD70B50446AF
:101130000D463D48844205D03C48844202D03C489C
:10114000844200D105E040F2CE41AFF6E41006F053
:1011500088FC15F0E00F01D105B105E040F2CF4168
:10116000AFF6FC1006F07DFCE843206070BD2DE971
:10117000F04104460D4600260027B0462A48844226
:1011800005D02A48844202D02948844200D105E093
:1011900040F2E341AFF6302006F063FCB5F5087F7E
:1011A00005D0B5F5A07F02D0B5F5906F00D105E070
:1011B00040F2E441AFF6502006F053FC2F12606875
:1011C000E9B200EA01082068384204D0B8F1000F03
:1011D00001D0012600E000263046BDE8F08170B560
:1011E00004460D4600261048844205D00F4884422C
:1011F00002D00F48844200D105E040F20651AFF61C
:10120000982006F02EFC4FF61F00054201D105B1D3
:1012100005E040F20751AFF6B02006F022FC2E1296
:10122000F043206070BD0000002401400028014010
:10123000003C0140082401400020014001201049E9
:101240008860704701460E4801600068704710B51D
:1012500002460B46002100BF04E052F82100084C72
:101260002060491C9942F8D30548006810BD044825
:10127000006870470249087170470148007970475B
:101280000030024010B50446FF4884422AD0FE4890
:101290001430844226D0FC482830844222D0FA48B8
:1012A0003C3084421ED0F848503084421AD0F64870
:1012B0006430844216D0F4487830844212D0F34827
:1012C00084420FD0F148143084420BD0EF482830CC
:1012D000844207D0ED483C30844203D0EB48503084
:1012E000844200D103E06E21E9A006F0BAFB206839
:1012F0004FF6FE7108402060002020606060A06012
:10130000E060E148844208D1DF480838406840F096
:101310000F00DD490839486088E0DB48143084421A
:1013200008D1D9480838406840F0F000D64908395B
:1013300048607BE0D4482830844208D1D24808383D
:10134000406840F47060D049083948606EE0CE488B
:101350003C30844208D1CC480838406840F47040A2
:10136000C9490839486061E0C7485030844208D113
:10137000C5480838406840F47020C34908394860BF
:1013800054E0C1486430844208D1BF4808384068FE
:1013900040F47000BC490839486047E0BA487830EA
:1013A000844208D1B8480838406840F07060B649B7
:1013B000083948603AE0B548844208D1A0F10400F9
:1013C000006840F00F00BF49C1F804042EE0AF48A8
:1013D0001430844207D1BC48006840F0F000B9499D
:1013E000C1F8040422E0A9482830844207D1B64855
:1013F000006840F47060B349C1F8040416E0A348E3
:101400003C30844207D1B048006840F47040AD4998
:10141000C1F804040AE09D485030844206D1AA482D
:10142000006840F47020A749C1F8040410BD70B5ED
:1014300005460C460026944885422AD0924814302E
:10144000854226D090482830854222D08E483C30B4
:1014500085421ED08C48503085421AD08A4864306C
:10146000854216D088487830854212D08748854218
:101470000FD08648143085420BD0844828308542EE
:1014800007D082483C30854203D0804850308542A6
:1014900000D103E0CE217EA006F0E3FAA068102878
:1014A00001D0A06800B903E0CF2179A006F0D9FAF5
:1014B000E06820B1E068B0F5803F00D203E0D021C1
:1014C00073A006F0CEFA2069402801D0206900B947
:1014D00003E0D1216EA006F0C4FA6069802801D033
:1014E000606900B903E0D22169A006F0BAFAA069E8
:1014F00038B1A069B0F5807F03D0A069B0F5007F56
:1015000000D103E0D32162A006F0ABFAE06938B164
:10151000E069B0F5806F03D0E069B0F5006F00D1ED
:1015200003E0D4215AA006F09CFA206A202801D0BA
:10153000206A00B903E0D52155A006F092FA606A4E
:10154000B0F5405F09D0606AB0F5005F05D0606A11
:10155000B0F5805F01D0606A00B903E0D6214CA0ED
:1015600006F07FFAA06AB0F5804F01D0A06A00B9FA
:1015700003E0D72146A006F074FA2E6847F6F07013
:101580008643216AA06808432169084361690843CA
:10159000A1690843E1690843616A0843A16A0843F5
:1015A00006432E60E06868602068A8606068E860B4
:1015B00070BD0021016041608160C16001614161D5
:1015C0008161C161016241628162704770B5044608
:1015D0000D462D4884422AD02B481430844226D010
:1015E00029482830844222D027483C3084421ED0EB
:1015F0002548503084421AD023486430844216D0A3
:1016000021487830844212D0204884420FD01F48AD
:10161000143084420BD01D482830844207D01B4828
:101620003C30844203D019485030844200D104E059
:101630004FF4947116A006F014FA0DB1012D00D1EB
:1016400004E040F2291112A006F00BFA25B120683F
:1016500040F00100206004E020684FF6FE71084071
:10166000206070BD70B504460D461646064884429B
:101670004CD005481430844248D003482830844276
:1016800044D001483C3021E00800024008040240F8
:101690002E2E5C53544D3332463130785F53746490
:1016A0005065726970685F4472697665725C7372C6
:1016B000635C73746D3332663130785F646D612EB4
:1016C00063000000000002400404024084421DD078
:1016D000FF4884421AD0FE481430844216D0FC4899
:1016E0002830844212D0FB4884420FD0F94814308D
:1016F00084420BD0F7482830844207D0F5483C306C
:10170000844203D0F3485030844200D105E04FF4C6
:10171000A471AFF2840006F0A4F935F00E0001D1F7
:1017200005B105E040F24911AFF29C0006F099F9CD
:101730000EB1012E00D105E04FF4A571AFF2B0005B
:1017400006F08FF91EB120682843206002E020686F
:10175000A843206070BD70B504460D46DC48503883
:10176000844229D0DA483C38844225D0D8482838E9
:10177000844221D0D648143884421DD0D4488442B3
:101780001AD0D3481430844216D0D148283084422D
:1017900012D0D04884420FD0CE48143084420BD0AF
:1017A000CC482830844207D0CA483C30844203D019
:1017B000C8485030844200D105E040F26311AFF2D6
:1017C000301006F04EF9656070BD10B50446C04893
:1017D0005038844229D0BE483C38844225D0BC4889
:1017E0002838844221D0BA48143884421DD0B848E1
:1017F00084421AD0B6481430844216D0B4482830F7
:10180000844212D0B34884420FD0B248143084428C
:101810000BD0B0482830844207D0AE483C308442D8
:1018200003D0AC485030844200D105E040F275113D
:10183000AFF2A41006F015F9606880B210BD70B563
:10184000044600250026012C7ED0022C7CD0042CDE
:101850007AD0082C7ED0102C7CD0202C7AD0402C32
:1018600078D0802C76D0B4F5807F73D0B4F5007F2B
:1018700070D0B4F5806F6DD0B4F5006F6AD0B4F558
:10188000805F67D0B4F5005F64D0B4F5804F61D05D
:10189000B4F5004F5ED0B4F5803F5BD0B4F5003FA7
:1018A00058D0B4F5802F55D0B4F5002F52D0B4F5F0
:1018B000801F4FD0B4F5001F4CD0B4F5800F49D035
:1018C000B4F5000F46D0B4F1807F43D0B4F1007F6F
:1018D00040D0B4F1806F3DD0B4F1006F3AD07E4873
:1018E000844237D0A4F18050801E33D0801E31D086
:1018F000001F2FD008382DD010382BD0203829D0F9
:10190000403827D07448FF30844223D07348844243
:1019100020D0734884421DD0724884421AD0B4F15A
:10192000102F17D04FEAF030844213D06E48844213
:1019300010D06E4884420DD06D4884420AD06D4864
:10194000844207D06C4800E004E0844202D06B4837
:10195000844200D105E040F2B511AFF2CC2006F090
:1019600080F814F0805F02D06548066802E05848AD
:1019700058380668264201D0012500E00025284697
:1019800070BD10B5044614F0704F02D05D4804429B
:1019900001D104B105E04FF40371AFF20C3006F051
:1019A00060F814F0805F02D05748046002E04848B5
:1019B0005838446010BD70B5044600250026012C3F
:1019C0007ED0022C7CD0042C7AD0082C7ED0102C17
:1019D0007CD0202C7AD0402C78D0802C76D0B4F5D6
:1019E000807F73D0B4F5007F70D0B4F5806F6DD078
:1019F000B4F5006F6AD0B4F5805F67D0B4F5005FCE
:101A000064D0B4F5804F61D0B4F5004F5ED0B4F52A
:101A1000803F5BD0B4F5003F58D0B4F5802F55D04F
:101A2000B4F5002F52D0B4F5801F4FD0B4F5001F8D
:101A30004CD0B4F5800F49D0B4F5000F46D0B4F1C6
:101A4000807F43D0B4F1007F40D0B4F1806F3DD0AF
:101A5000B4F1006F3AD02048844237D0A4F18050CE
:101A6000801E33D0801E31D0001F2FD008382DD0DB
:101A700010382BD0203829D0403827D01648FF30D6
:101A8000844223D01548844220D0154884421DD07A
:101A9000144884421AD0B4F1102F17D04FEAF03016
:101AA000844213D01048844210D0104884420DD094
:101AB0000F4884420AD00F48844207D00E4800E005
:101AC00004E0844202D00D4884421FD124E000008B
:101AD00058000240080402400100001000020010FB
:101AE00000040010000800100040001000800010EA
:101AF0000000011000000210000004100000081097
:101B0000000402400000F0EF0404024040F25621BD
:101B1000AFF2844005F0A5FF14F0805F02D01248B8
:101B2000066801E011480668264201D0012500E060
:101B30000025284670BD10B5044614F0704F02D041
:101B40000B48044201D104B105E04FF42B71AFF210
:101B5000C04005F086FF14F0805F02D005480460A5
:101B600001E00248446010BD000402400000024051
:101B70000000F0EF0404024070B5044600251CB1DB
:101B8000012C01D0022C00D104E04FF48171F4A0AB
:101B900005F067FFFF48056805F038052543056037
:101BA00070BD10B50446082C00D004B904E040F222
:101BB0001B11EBA005F055FFF648006820F0080067
:101BC000F4490860084600682043086010BD10B55D
:101BD0000446102C00D004B904E04FF49771E0A043
:101BE00005F03FFFEB48006820F01000E94908606D
:101BF000084600682043086010BDE748E549486092
:101C0000E64848607047E448E2494860E348486075
:101C10007047E048006940F08000DE490861704785
:101C2000DC48006940F08000DA4908617047042010
:101C3000D849C96801F00101012901D101200EE054
:101C4000D449C96811F0040F01D0022007E0D1493E
:101C5000C96811F0100F01D0032000E00420704784
:101C600000B502460423FFF7E2FF034603E0FFF757
:101C7000DEFF0346521E012B01D1002AF7D102B923
:101C80000523184600BD70B504460425B4F1006F65
:101C900003D3C348844200D204E04FF4D371B0A010
:101CA00005F0DFFE4FF43020FFF7DAFF0546042D84
:101CB00017D1B848006940F00200B64908610846EB
:101CC0004461006940F0400008614FF43020FFF7A4
:101CD000C7FF0546AF48006941F6FD710840AD49B0
:101CE0000861284670BD10B504244FF43020FFF77A
:101CF000B7FF0446042C16D1A648006940F0040042
:101D0000A44908610846006940F0400008614FF4AA
:101D10003020FFF7A5FF04469E48006941F6FB719D
:101D200008409C490861204610BD00B502460423C6
:101D3000FFF77DFF034603E0FFF779FF0346521EDE
:101D4000012B01D1002AF7D102B90523184600BDA5
:101D500010B504244FF43020FFF7E7FF0446042CAD
:101D600016D18C48006940F004008A490861084691
:101D7000006940F0400008614FF43020FFF7D5FFC4
:101D800004468448006941F6FB71084081490861B6
:101D9000204610BD00207F49C96911F0020F01D013
:101DA000012000E00020704730B5A5250424FFF78E
:101DB000F1FF00B100254FF43020FFF751FF04463A
:101DC000042C3BD174487349886074488860084685
:101DD000006940F0200008610846006940F04000BA
:101DE00008614FF43020FFF73BFF0446042C1CD160
:101DF0006848006941F6DF71084066490861084695
:101E0000006940F010000861664805804FF40050FA
:101E1000FFF726FF0446052C10D05E48006941F606
:101E2000EF7108405B49086108E0052C06D059486D
:101E3000006941F6EF71084056490861204630BDFF
:101E40002DE9F04104460D4604260027B4F1006F49
:101E500003D35348844200D204E040F2AE2140A0B4
:101E600005F0FFFD4FF40050FFF7FAFE0646042E82
:101E700022D14848006940F00100464908612580A8
:101E8000F002FFF7EDFE0646042E0ED1A71C280C2B
:101E90003880F002FFF7E4FE06463E48006941F64E
:101EA000FE7108403B49086106E03A48006941F686
:101EB000FE710840374908613046BDE8F08170B5D1
:101EC00004460D460426B4F1006F03D3344884421F
:101ED00000D204E040F25D3121A005F0C2FD4FF4D4
:101EE0000050FFF7BDFE0646042E11D129480069B7
:101EF00040F00100274908612580F002FFF7B0FE9D
:101F000006462448006941F6FE71084021490861EF
:101F1000304670BD70B504460E4604252148001DAC
:101F2000844202D0801C844200D104E04FF46971E5
:101F30000BA005F096FD4FF40050FFF791FE05460B
:101F4000042D3DD114481349886014488860084620
:101F5000006940F0100008612680E80224E00000DB
:101F60002E2E5C53544D3332463130785F537464B7
:101F70005065726970685F4472697665725C7372ED
:101F8000635C73746D3332663130785F666C617395
:101F9000682E63000020024023016745AB89EFCD26
:101FA000FFFF0F0800F8FF1FFFF75AFE0546052D3B
:101FB00006D0CF48006941F6EF710840CC4908616E
:101FC000284670BD2DE9F04704464FF6FF763746A8
:101FD000B046B146042504B105E040F2D531AFF278
:101FE000800005F03EFDE443E6B2C4F30727C4F3E6
:101FF00007484FEA14694FF40050FFF731FE0546D9
:10200000042D3ED1BB48BA498860BB488860084669
:10201000006940F010000861FF2E06D0B748068026
:102020004FF40050FFF71CFE0546042D08D1FF2F8A
:1020300006D0B34807804FF40050FFF711FE054665
:10204000042D09D1B8F1FF0F06D0AE48A0F80C88D6
:10205000E802FFF705FE0546042D09D1B9F1FF0F8F
:1020600006D0A848A0F80E98E802FFF7F9FD05464B
:10207000052D06D09E48006941F6EF7108409C4945
:1020800008612846BDE8F08770B5054604240DB107
:10209000012D00D105E040F21C41AFF23C1005F0EB
:1020A000E0FC4FF43020FFF7DBFD0446042C41D167
:1020B00090488F498860904888600846006940F0E1
:1020C000200008610846006940F0400008614FF4B4
:1020D0003020FFF7C5FD0446042C22D18448006956
:1020E00041F6DF710840824908610846006940F006
:1020F000100008611DB100208349088002E0A5207E
:10210000814908804FF43020FFF7AAFD0446052CD2
:1021100010D07748006941F6EF71084074490861B2
:1021200008E0052C06D07248006941F6DF710840CE
:102130006F490861204670BD2DE9F04104460D4607
:1021400016460427012C00D004B905E040F2624194
:10215000AFF2F41005F085FC022D00D005B905E0C2
:1021600040F26341AFF2082005F07BFC042E00D062
:1021700006B905E040F26441AFF21C2005F071FCA5
:102180005C485B4988605C4888604FF40050FFF70A
:1021900067FD0746042F19D15548006940F010002B
:1021A0005349086146F0F800284320435749088006
:1021B0004FF40050FFF754FD0746052F06D04C485A
:1021C000006941F6EF710840494908613846BDE8A9
:1021D000F0814748C069800870474548006A7047E9
:1021E00000204349096811F0200F01D0012000E0D0
:1021F0000020704770B504460D4634F4A05001D15C
:1022000004B105E040F22C51AFF2AC2005F029FCFE
:102210000DB1012D00D105E040F22D51AFF2C020EB
:1022200005F01FFC2DB13248006920433049086198
:1022300004E02F480069A0432D49086170BD70B5C6
:1022400004460025012C0FD0202C0DD0042C0BD0DF
:10225000102C09D0012C07D0202C05D0042C03D041
:10226000102C01D0012C00D105E040F27951AFF2E1
:10227000103005F0F6FB012C08D11D48C06910F0A4
:10228000010F01D0012508E0002506E01848C068CC
:10229000204201D0012500E00025284670BD10B580
:1022A000044634F0350001D104B105E040F2B551E7
:1022B000AFF2543005F0D5FB0D48C46010BD0420CA
:1022C0000B49C96801F00101012901D101200EE08B
:1022D0000749C96811F0040F01D0022007E0044942
:1022E000C96811F0100F01D0032000E004207047EE
:1022F0000020024023016745AB89EFCD08F8FF1F9E
:102300000AF8FF1F00F0FF1F00F8FF1F02F8FF1F71
:1023100010B50446FD48844211D0FD4884420ED0D9
:10232000FC4884420BD0FC48844208D0FB488442DD
:1023300005D0FB48844202D0FA48844200D103E031
:102340006E21F9A005F08DFBF048844208D10121EF
:10235000042001F0F9FE0021042001F0F5FE46E022
:10236000EB48844208D10121082001F0EDFE002154
:10237000082001F0E9FE3AE0E648844208D1012154
:10238000102001F0E1FE0021102001F0DDFE2EE022
:10239000E148844208D10121202001F0D5FE00212E
:1023A000202001F0D1FE22E0DC48844208D1012146
:1023B000402001F0C9FE0021402001F0C5FE16E0DA
:1023C000D748844208D10121802001F0BDFE0021C0
:1023D000802001F0B9FE0AE0D248844207D10121F1
:1023E000801501F0B1FE0021A01501F0ADFE10BD79
:1023F00010B50121084601F0A7FE0021012001F0DF
:10240000A3FE10BD2DE9F05F05460C464FF0000914
:10241000CA4600260027B046B346BC48854211D0C4
:10242000BB4885420ED0BB4885420BD0BA48854296
:1024300008D0BA48854205D0B948854202D0B9488B
:10244000854200D103E0B121B7A005F00AFBE07896
:10245000A0B1E078042811D0E07828280ED0E078E8
:1024600048280BD0E078142808D0E078102805D050
:10247000E0781C2802D0E078182800D103E0B221CF
:10248000A9A005F0EEFA002010B9208800B103E001
:10249000B321A5A005F0E5FAE07800F00F09E07897
:1024A00010F0100F10D0A078012805D0A0780228D5
:1024B00002D0A078032800D103E0BA219AA005F049
:1024C000D0FAA07840EA0909208810F0FF0F27D041
:1024D000D5F8008000261FE0012000FA06F72088CA
:1024E00000EA070ABA4516D1B7000F2000FA07FB29
:1024F00028EA0B0809FA07F040EA0808E0782828DB
:1025000003D10120B040686105E0E078482802D19D
:102510000120B0402861761C082EDDD3C5F800806C
:102520002088FF282BDDD5F80480002623E006F163
:102530000800012101FA00F7208800EA070ABA45DD
:1025400018D1B7000F2000FA07FB28EA0B0809FA98
:1025500007F040EA0808E078282803D106F10800CF
:1025600081406961E078482804D106F10800012122
:1025700081402961761C082ED9D3C5F80480BDE8B6
:10258000F09F4FF6FF710180022181700421C1701C
:10259000704770B505460C4600265C48854211D050
:1025A0005B4885420ED05B4885420BD05A48854235
:1025B00008D05A48854205D05948854202D059482A
:1025C000854200D104E040F21D1157A005F049FA00
:1025D000012C25D0022C23D0042C21D0082C1FD074
:1025E000102C1DD0202C1BD0402C19D0802C17D0A3
:1025F000B4F5807F14D0B4F5007F11D0B4F5806FAE
:102600000ED0B4F5006F0BD0B4F5805F08D0B4F5F0
:10261000005F05D0B4F5804F02D0B4F5004F00D173
:1026200004E04FF48F7140A005F01BFAA868204227
:1026300001D0012600E00026304670BD10B50446EA
:102640003248844211D0324884420ED0314884420C
:102650000BD03148844208D03048844205D03048FD
:10266000844202D02F48844200D104E040F233116A
:102670002DA005F0F6F9A06880B210BD70B5054632
:102680000C4600262148854211D0214885420ED0B3
:10269000204885420BD02048854208D01F488542FB
:1026A00005D01F48854202D01E48854200D104E073
:1026B00040F243111CA005F0D4F9012C25D0022CC6
:1026C00023D0042C21D0082C1FD0102C1DD0202C5E
:1026D0001BD0402C19D0802C17D0B4F5807F14D09B
:1026E000B4F5007F11D0B4F5806F0ED0B4F5006F53
:1026F0000BD0B4F5805F08D0B4F5005F05D0B4F519
:10270000804F02D0B4F5004F28D12DE000080140E1
:10271000000C01400010014000140140001801406D
:10272000001C0140002001402E2E5C53544D3332DA
:10273000463130785F5374645065726970685F44E5
:1027400072697665725C7372635C73746D33326642
:102750003130785F6770696F2E6300004FF4A271AB
:10276000AFF23C0005F07DF9E868204201D0012677
:1027700000E00026304670BD10B50446FF48844294
:1027800011D0FF4884420ED0FE4884420BD0FE4850
:10279000844208D0FD48844205D0FD48844202D0DE
:1027A000FC48844200D105E040F25911AFF28800A4
:1027B00005F057F9E06880B210BD70B504460D46CB
:1027C000EE48844211D0EE4884420ED0ED48844257
:1027D0000BD0ED48844208D0EC48844205D0EC4848
:1027E000844202D0EB48844200D105E04FF4B4713A
:1027F000AFF2CC0005F035F9002008B905B105E0CD
:1028000040F26911AFF2E00005F02BF9256170BDCF
:1028100070B504460D46D948844211D0D848844248
:102820000ED0D84884420BD0D748844208D0D7482D
:10283000844205D0D648844202D0D648844200D192
:1028400005E04FF4BC71AFF2201005F00AF900204A
:1028500008B905B105E040F27911AFF2341005F086
:1028600000F9656170BD70B505460C461646C34853
:10287000854211D0C24885420ED0C24885420BD055
:10288000C148854208D0C148854205D0C04885422C
:1028900002D0C048854200D105E04FF4C671AFF2C6
:1028A000781005F0DEF8012C25D0022C23D0042C62
:1028B00021D0082C1FD0102C1DD0202C1BD0402C38
:1028C00019D0802C17D0B4F5807F14D0B4F5007FD8
:1028D00011D0B4F5806F0ED0B4F5006F0BD0B4F505
:1028E000805F08D0B4F5005F05D0B4F5804F02D00A
:1028F000B4F5004F00D105E040F28D11AFF2D810D1
:1029000005F0AFF80EB1012E00D105E04FF4C7710C
:10291000AFF2EC1005F0A5F80EB12C6100E06C618F
:1029200070BD70B504460D469448844211D0944859
:1029300084420ED0934884420BD09348844208D0FE
:102940009248844205D09248844202D09148844201
:1029500000D105E040F2A311AFF2342005F081F878
:10296000E56070BD70B504460D464FF4803683486F
:10297000844211D0824884420ED0824884420BD0D7
:102980008148844208D08148844205D080488442EE
:1029900002D08048844200D105E04FF4DA71AFF2F2
:1029A000782005F05EF8002008B905B105E040F296
:1029B000B511AFF28C2005F054F82E43A661A56145
:1029C000A661A669A66970BD70B505460C460026CD
:1029D0003DB1012D05D0022D03D0032D01D0042DD2
:1029E00000D105E040F2D111AFF2C42005F039F872
:1029F000ECB1012C1BD0022C19D0032C17D0042CC5
:102A000015D0052C13D0062C11D0072C0FD0082C74
:102A10000DD0092C0BD00A2C09D00B2C07D00C2C74
:102A200005D00D2C03D00E2C01D00F2C00D105E0C9
:102A30004FF4E971AFF2103005F013F8564806680C
:102A40004FF68070064046EA051626435248066057
:102A500070BD10B504460CB1012C00D105E040F268
:102A6000E511AFF23C3004F0FCFF4C48C46110BDEE
:102A70002DE9F04704460E460027B8460025A94632
:102A8000012C7AD0022C78D0042C76D0082C74D06B
:102A9000A4F5A010103870D020386ED0A4F5B01076
:102AA00040386AD0803868D03D48844265D03D487F
:102AB000844262D03C4884425FD03C4884425CD02F
:102AC0003B48844259D0B4F5805F56D0B4F5EA1F34
:102AD00053D0B4F5EB1F50D0B4F5004F4DD035486E
:102AE00084424AD0A4F50010801E7DD0801E7BD089
:102AF000001F79D0083877D0B4F1201F74D0303857
:102B000072D02D4884426FD02C4884426CD02C481F
:102B1000844269D02B48844266D02B48844263D0DB
:102B2000B4F5011F60D0294884425DD0401C844226
:102B30005AD0801C844257D0001D844254D0234870
:102B40000F30844250D021481F3084424CD01F485F
:102B50003F30844248D01D487F30844244D01B48D7
:102B6000FF30844240D01A4884423DD01948844204
:102B70003AD01948844237D030E035E000080140AF
:102B8000000C0140001001400014014000180140F9
:102B9000001C0140002001400000014000002042D4
:102BA00000011800000218000003180000081A00B5
:102BB000000C1A000100200000013000000230006B
:102BC00000043000001020000020200001000080E0
:102BD00000020080000400800008008061488442F8
:102BE00002D06148844200D105E040F22721AFF2D3
:102BF000C84004F036FF0EB1012E00D105E04FF4BD
:102C00000A71AFF2DC4004F02CFF04F00040B0F198
:102C1000004F02D15548C56901E054484568C4F3E6
:102C20000349A7B204F44010B0F5401F08D125F0C5
:102C300070654E48406820F070604C49486013E071
:102C400004F48010B0F5801F07D1032000FA09F8C2
:102C500025EA080545F0706506E0600D000107FAF9
:102C600000F0854345F0706526B1600D010107FA5B
:102C700001F0054304F00040B0F1004F02D13B48A1
:102C8000C56101E039484560BDE8F08770B505468B
:102C90000C4600265DB1012D09D0022D07D0032D71
:102CA00005D0042D03D0052D01D0062D00D105E05F
:102CB00040F26221AFF2905004F0D3FEECB1012C4F
:102CC0001BD0022C19D0032C17D0042C15D0052CA6
:102CD00013D0062C11D0072C0FD0082C0DD0092CA6
:102CE0000BD00A2C09D00B2C07D00C2C05D00D2CA6
:102CF00003D00E2C01D00F2C00D105E040F263214F
:102D0000AFF2DC5004F0ADFEA007010F0F2000FA77
:102D100001F616480830A11050F82100B0431349BD
:102D20000831A21041F822000846A11050F82100F5
:102D3000A107090F05FA01F108430C490831A21057
:102D400041F8220070BD10B504460CB1012C00D131
:102D500005E040F27521AFF2306004F082FE0448D5
:102D6000046010BD001000800020008000000140C1
:102D7000DC00204210B50446FA48844202D0FA48EA
:102D8000844200D103E0A521F8A004F06AFEF548D2
:102D9000844209D10121480501F0FFF900214FF4D7
:102DA000001001F0FAF908E00121880501F0F5F9B9
:102DB00000214FF4800001F0F0F910BD2DE9F0433F
:102DC00085B005460C460026B1460427DFF8D083BF
:102DD000E448854202D0E448854200D103E0C621A0
:102DE000E2A004F03EFE206820B1EE49206888424F
:102DF00000D803E0C721DDA004F033FEA08828B18D
:102E0000A088022802D0A0880A2800D103E0C821A7
:102E1000D6A004F026FEE088B0F5804F04D0E0880C
:102E2000A0F53F41FF3900D103E0C921CFA004F054
:102E300018FE2089B0F5806F00DA03E0CA21CBA02C
:102E400004F00FFE6089B0F5806F01D0608900B991
:102E500003E0CB21C5A004F004FEA089B0F5804FAB
:102E600003D0A089B0F5404F00D103E0CC21BFA032
:102E700004F0F7FDAE884FF6C0710E40684601F0D1
:102E80007EF8DDF80880C848B8FBF0F01FFA80F93A
:102E900046EA0906AE8028884FF6FE710840288071
:102EA0000026C249206888420CD820684000B8FB40
:102EB000F0F087B2042F00DA04273E4309F1010045
:102EC000288427E0E088A0F53F41FF3906D120683B
:102ED00000EB4000B8FBF0F087B209E0206800EB9F
:102EE000C00101EB0010B8FBF0F087B247F4804757
:102EF0003805000D01D147F0010747F400400643B3
:102F00004FF4967009FB00F04FF47A7190FBF1F0EA
:102F1000401C2884AE83288840F0010028802E8839
:102F20004FF6F5310E40A0886189084306432E8094
:102F3000A08921890843288105B0BDE8F08341F2CA
:102F400088310160002181804BF6FF71C180002132
:102F5000018141814FF480418181704770B5044601
:102F60000D468048844202D07F48844200D104E06C
:102F700040F245117DA004F074FD0DB1012D00D18A
:102F800004E04FF4A37179A004F06BFD25B1208813
:102F900040F00100208004E020884FF6FE710840D8
:102FA000208070BD70B504460D466E48844202D044
:102FB0006D48844200D104E040F25D116BA004F042
:102FC00050FD0DB1012D00D104E04FF4AF7167A0A9
:102FD00004F047FD25B1A08840F40060A08004E023
:102FE000A0884FF2FF710840A08070BD70B5044604
:102FF0000D465C48844202D05B48844200D104E024
:1030000040F2751159A004F02CFD0DB1012D00D135
:1030100004E04FF4BB7155A004F023FD25B1A08856
:1030200040F48050A08004E0A0884EF6FF71084074
:10303000A08070BD70B504460D464A48844202D057
:103040004948844200D104E040F28D1147A004F0C9
:1030500008FD0DB1012D00D104E04FF4C77143A06C
:1030600004F0FFFC25B1208840F48070208004E04B
:1030700020884FF6FF610840208070BD70B504467F
:103080000D463848844202D03748844200D104E0DB
:1030900040F2A51135A004F0E4FC0DB1012D00D1E2
:1030A00004E04FF4D37131A004F0DBFC25B120889B
:1030B00040F40070208004E020884FF6FF51084063
:1030C000208070BD70B504460D462648844202D06B
:1030D0002548844200D104E040F2BD1123A004F051
:1030E000C0FC0DB1012D00D104E04FF4DF711FA031
:1030F00004F0B7FC25B1208840F48060208004E013
:1031000020884FF6FF310840208070BD70B504461E
:103110000E4600251348844202D01348844200D151
:1031200004E04FF4EB7111A004F09BFCA5894FF66D
:1031300001710D4006F0FE000543A58170BD70B51C
:1031400004460D460748844202D00748844200D115
:1031500004E040F2EF1105A004F083FC0DB1012D55
:1031600026D12BE000540040005800402E2E5C5326
:10317000544D3332463130785F5374645065726910
:1031800070685F4472697665725C7372635C7374B5
:103190006D3332663130785F6932632E6300000030
:1031A00000127A00801A060040420F00A08601003B
:1031B0004FF4F871AFF24C0004F053FC25B1A08934
:1031C00040F00100A08104E0A0894FF6FE710840A4
:1031D000A08170BD70B504460D46F848844202D007
:1031E000F748844200D105E040F20721AFF28400A5
:1031F00004F037FC0DB1012D00D105E04FF4027150
:10320000AFF2980004F02DFC25B1208840F040007A
:10321000208004E020884FF6BF710840208070BDF8
:1032200070B504460D461646E448844202D0E44890
:10323000844200D105E04FF40971AFF2D00004F0F0
:1032400010FC0EB1012E00D105E040F22521AFF2B5
:10325000E40004F006FC4FF6FF00054201D105B181
:1032600005E040F22621AFF2FC0004F0FAFB1EB1AB
:10327000A0882843A08004E0A088E94389B20840E0
:10328000A08070BD70B504460D46CC48844202D083
:10329000CB48844200D105E040F23D21AFF234102A
:1032A00004F0DFFB258270BD10B50446C34884429C
:1032B00002D0C348844200D105E040F24A21AFF277
:1032C000541004F0CEFB208AC0B210BD70B5044685
:1032D0000D461646B948844202D0B948844200D10E
:1032E00005E04FF41771AFF27C1004F0BAFB0EB199
:1032F000012E00D105E040F25D21AFF2901004F004
:10330000B0FB16B145F0010502E04FF6FE710D402D
:10331000258270BD70B505460C460026A74885423B
:1033200002D0A748854200D105E040F28121AFF2EA
:10333000C41004F096FB7CB1042C0DD0082C0BD0EB
:103340000C2C09D0102C07D0142C05D0182C03D02D
:103350001C2C01D0202C00D105E040F28221AFF2DC
:10336000F41004F07EFB2E462644308870BD70B504
:1033700004460D469148844202D09148844200D1CF
:1033800005E040F29521AFF21C2004F06AFB0DB17C
:10339000012D00D105E040F29621AFF2302004F07B
:1033A00060FB25B1208840F40040208003E02088A5
:1033B000C0F30E00208070BD70B504460D467F48F6
:1033C000844202D07E48844200D105E040F2BB2115
:1033D000AFF2682004F045FBB5F5006F03D0A5F50A
:1033E0007740FF3800D105E04FF42F71AFF2842011
:1033F00004F037FBB5F5006F04D1208840F400607D
:10340000208004E020884FF2FF710840208070BDCA
:1034100070B504460D466948844202D0684884422B
:1034200000D105E040F2D721AFF2C02004F019FB33
:10343000B5F5005F03D0A5F55F40FF3800D105E08A
:103440004FF43671AFF2DC2004F00BFBB5F5005FF2
:1034500004D1208840F40050208004E020884DF6FC
:10346000FF710840208070BD70B504460D4653487A
:10347000844202D05248844200D105E040F2EF215C
:10348000AFF2183004F0EDFA0DB1012D00D105E0D6
:103490004FF43C71AFF22C3004F0E3FA25B12088F0
:1034A00040F48050208004E020884EF6FF710840F0
:1034B000208070BD70B504460D464048844202D05D
:1034C0003F48844200D105E040F20E31AFF2643053
:1034D00004F0C7FAB5F5006F03D0A5F57740FF38C3
:1034E00000D105E040F20F31AFF2803004F0B9FABC
:1034F000B5F5006F04D1208840F40060208004E01E
:1035000020884FF2FF710840208070BD70B50446DE
:103510000D462A48844202D02948844200D105E061
:1035200040F22631AFF2BC3004F09BFA0DB1012D10
:1035300000D105E040F22731AFF2D03004F091FA2B
:1035400025B1208840F02000208004E020884FF63C
:10355000DF710840208070BD10B5044617488442D2
:1035600002D01748844200D105E04FF44F71AFF20A
:10357000044004F076FA208B001210BD70B50446AA
:103580000D460E48844202D00D48844200D105E029
:1035900040F24B31AFF22C4004F063FA0DB1012D33
:1035A00000D105E04FF45371AFF2404004F059FAF6
:1035B00045B1208840F01000208008E00054004011
:1035C0000058004020884FF6EF710840208070BD01
:1035D00070B504460D46F048844202D0EF4884425C
:1035E00000D105E040F26331AFF2804004F039FAD7
:1035F0000DB1012D00D105E04FF45971AFF29440A7
:1036000004F02FFA25B9208840F08000208004E0E3
:1036100020884FF67F710840208070BD70B5044649
:103620000D46DD48844202D0DC48844200D105E0EA
:1036300040F27D31AFF2CC4004F013FAB5F5804F83
:1036400003D0A5F53F40FF3800D105E040F27E31C0
:10365000AFF2E84004F005FAB5F5804F05D0A08B35
:103660004BF6FF710840A08303E0A08B40F480403C
:10367000A08370BD2DE9F04705460C460027B946EA
:103680000026B046C448854202D0C448854200D1D5
:1036900005E040F20D41AFF22C5004F0E2F9A4F540
:1036A000C02082383CD0B4F1021F39D0A4F5060006
:1036B000803835D0B4F5020F32D0B4F5901F2FD03A
:1036C000A4F5003040382BD0B0F5000028D010F51C
:1036D000E00025D0A4F5C020843821D0B0F500004A
:1036E0001ED010F5E0001BD0102C19D0AC4884423D
:1036F00016D0A4F5E020823812D0A4F54030801E08
:103700000ED03E380CD0A4F5E020843808D0001D3F
:1037100006D0A4F54030083802D0B4F5806F00D14F
:1037200005E040F20E41AFF2BC5004F09AF9B5F852
:1037300014902E8B360449EA060020F07F4707EAF2
:103740000400A04202D14FF0010801E04FF0000850
:103750004046BDE8F0872DE9F041044600260027E9
:1037600000258D48844202D08C48844200D105E077
:1037700040F23C41AFF20C6004F073F9A78A258B4C
:103780002D0447EA050020F07F463046BDE8F08171
:103790002DE9F04105460C460027B84600267E4834
:1037A000854202D07D48854200D105E040F2734158
:1037B000AFF2486004F055F9B4F5000F38D0B4F515
:1037C000800F35D0B4F5001F32D0B4F5801F2FD054
:1037D000B4F5802F2CD0B4F5003F29D0B4F5803F4C
:1037E00026D07048844223D06F48844220D0B4F160
:1037F000102F1DD06D4884421AD06D48844217D0D6
:103800006C48844214D06C48844211D0A4F180509A
:1038100080380DD040300BD0303009D0083007D080
:10382000001D05D0801C03D06348FF38844200D1BE
:1038300005E040F27441AFF2CC6004F012F92E467C
:103840004FEA147824F07F44B8F1000F01D0143609
:1038500001E0240C18363068204201D0012700E036
:1038600000273846BDE8F08170B504460D460026B5
:103870004948844202D04948844200D105E04FF4CF
:103880009861AFF2187004F0ECF842F2FF000542C4
:1038900001D105B105E040F2C141AFF2307004F052
:1038A000E0F825F07F46F043A08270BD2DE9F0419D
:1038B00005460C46002600273748854202D0374887
:1038C000854200D105E040F2E441AFF2607004F0BF
:1038D000C8F83A48844224D03948844221D0394833
:1038E00084421ED0384884421BD03848844218D0C5
:1038F0003748844215D0B4F1012F12D0A4F1C06032
:1039000080380ED040300CD0A4F10070103808D0B0
:10391000083006D0001D04D0801C02D02D488442FF
:1039200000D105E040F2E541AFF2C07004F099F833
:10393000A88804F0E06100EA114724F07F44A88AD7
:10394000204202D00FB1012600E000263046BDE83B
:10395000F08170B504460D4600260F48844202D01F
:103960000E48844200D105E040F21F51AFF604003A
:1039700004F077F842F2FF00054201D105B105E0FD
:103980004FF4A461AFF61C0004F06BF825F07F46FD
:10399000F043A08270BD0000005400400058004079
:1039A000010003000080001000400010000800101B
:1039B000000400100002001000010010008000014F
:1039C0000040000100100001000800010004000197
:1039D000000200010100000210B50446A4F5AA404F
:1039E000553800D004B903E05E2124A004F039F872
:1039F0002F48046010BD10B504465CB1012C09D0FD
:103A0000022C07D0032C05D0042C03D0052C01D0A8
:103A1000062C00D103E0722118A004F022F82448FB
:103A2000446010BD10B50446B4F5805F00DA03E0D1
:103A30007F2112A004F015F81D48846010BD4AF6DD
:103A4000AA201B49086070474CF6CC401849086012
:103A5000704770B504460025012C01D0022C00D11E
:103A600003E0A42105A003F0FCFF1148C068204238
:103A700001D0012500E00025284670BD2E2E5C53A4
:103A8000544D3332463130785F53746450657269F7
:103A900070685F4472697665725C7372635C73749C
:103AA0006D3332663130785F697764672E6300006A
:103AB00000300040FD48006840F00100FB4908600C
:103AC00008464068FA490840F849486008460068D6
:103AD000F8490840F54908600846006820F480204D
:103AE00008600846406820F4FE0048604FF41F005C
:103AF0008860704710B504462CB1B4F5803F02D001
:103B0000B4F5802F00D104E04FF48871EAA003F0EF
:103B1000A8FFE648006820F48030E44908600846C1
:103B2000006820F480200860B4F5803F03D0B4F52D
:103B3000802F0ED106E0DD48006840F48030DB497C
:103B4000086007E0D948006840F4A020D749086021
:103B500000E000BF00BF10BD2DE9F0410446002584
:103B600000260027212C13D0312C11D0392C0FD056
:103B7000412C0DD0612C0BD07A2C09D07B2C07D096
:103B80007C2C05D07D2C03D07E2C01D07F2C00D145
:103B900004E040F23351C8A003F063FF6511012D2A
:103BA00002D1C248066806E0022D02D1BF48066A6B
:103BB00001E0BE48466A04F01F050120A8403042DB
:103BC00001D0012700E000273846BDE8F08170B53C
:103BD00000240025002600BF3120FFF7BDFF064668
:103BE000641CB4F5A06F01D0002EF5D03120FFF792
:103BF000B3FF08B1012500E00025284670BD70B56F
:103C0000044600251F2C00DC04E040F25111AAA05C
:103C100003F027FFA548056825F0F80545EAC40527
:103C2000056070BD10B504460CB1012C00D104E054
:103C30004FF4B271A0A003F014FFAC48046010BDB3
:103C400070B505460C4600262DB1B5F5803F02D073
:103C5000B5F5403F00D104E04FF4BF7196A003F0EA
:103C600000FF4CB3B4F5802F26D0B4F5002F23D03D
:103C7000B4F5402F20D0B4F5801F1DD0B4F5A01F9F
:103C80001AD0B4F5C01F17D0B4F5E01F14D0B4F5A6
:103C9000001F11D0B4F5101F0ED0B4F5201F0BD0AB
:103CA000B4F5301F08D0B4F5401F05D0B4F5501F4F
:103CB00002D0B4F5601F00D104E040F27F117EA075
:103CC00003F0CFFE7948466826F47C1645EA0400E6
:103CD00006437648466070BD10B504460CB1012C11
:103CE00000D104E040F2931173A003F0BAFE7F48C4
:103CF000046610BD70B5044600251CB1012C01D02E
:103D0000022C00D104E040F237216BA003F0A9FEA1
:103D10006648456825F003052543456070BD634846
:103D2000406800F00C00704770B5044600257CB177
:103D3000802C0DD0902C0BD0A02C09D0B02C07D00B
:103D4000C02C05D0D02C03D0E02C01D0F02C00D119
:103D500004E040F2632158A003F083FE5348456815
:103D600025F0F0052543456070BD70B5044600257B
:103D70005CB1B4F5806F08D0B4F5A06F05D0B4F590
:103D8000C06F02D0B4F5E06F00D104E040F27D21B5
:103D900049A003F066FE4548456825F4E0652543E3
:103DA000456070BD70B5044600255CB1B4F5806F08
:103DB00008D0B4F5A06F05D0B4F5C06F02D0B4F54B
:103DC000E06F00D104E040F297213BA003F049FEF0
:103DD0003648456825F4605545EAC405456070BD20
:103DE00070B504460D4614F0E00F01D104B104E0B3
:103DF00040F2BE2130A003F034FE0DB1012D00D100
:103E000004E040F2BF212CA003F02BFE2DB1274887
:103E1000407A20432549487206E02448407AE1432D
:103E2000C9B208402149487270BD10B504460CB1B2
:103E3000012C00D104E040F2DA211FA003F011FEB2
:103E40002B48046010BD70B50446002544B1B4F59C
:103E5000804F05D0B4F5004F02D0B4F5404F00D1EB
:103E600004E040F2013114A003F0FBFD0F48456867
:103E700025F440452543456070BD10B504461CB18E
:103E8000012C01D0042C00D104E040F23F310AA003
:103E900003F0E7FD002017490870044981F820006D
:103EA000012C29D0042C2FD12AE000000010024060
:103EB0000000FFF8FFFFF6FE2E2E5C53544D333208
:103EC000463130785F5374645065726970685F443E
:103ED00072697665725C7372635C73746D3332669B
:103EE0003130785F7263632E63000000000042424D
:103EF000D8004242201002400120F349087004E03B
:103F00000520F149087000E000BF00BF10BD10B5EA
:103F100004460CB1012C00D105E04FF45871AFF20A
:103F2000680003F09EFDE948046010BD10B504462A
:103F3000B4F5807F05D0B4F5007F02D0B4F5407FA2
:103F400000D105E040F27131AFF2940003F089FD39
:103F5000DD482038006A2043DB492039086210BD63
:103F600010B504460CB1012C00D105E040F27F31C0
:103F7000AFF2BC0003F075FDD548046010BD30B54C
:103F80000021002200240023CF4D203D6D6805F064
:103F90000C0121B1042905D0082926D105E0CD4D19
:103FA000056025E0CB4D056022E0C74D203D6D68E2
:103FB00005F47012C44D203D6D6805F4803402256F
:103FC00005EB92421CB9C44D554305600CE0BE4D53
:103FD000203D6D6815F4003F03D0BF4D554305608B
:103FE00002E0BC4D5543056002E0BA4D056000BFDC
:103FF00000BFB54D203D6D6805F0F0010909B74DD2
:104000006B5C0568DD404560AF4D203D6D6805F493
:10401000E061090AB14D6B5C4568DD408560AA4DE1
:10402000203D6D6805F46051C90AAC4D6B5C456874
:10403000DD40C560A44D203D6D6805F44041890B0D
:10404000A74D6B5CC568B5FBF3F5056130BD70B578
:1040500004460D4640F2575034EA000001D104B145
:1040600005E040F22A41AFF2B01003F0FAFC0DB1C6
:10407000012D00D105E040F22B41AFF2C41003F056
:10408000F0FC3DB190482038406920438E492039EA
:10409000486106E08C4820384069A0438A492039AD
:1040A000486170BD70B504460D468E48044201D18A
:1040B00004B105E040F24941AFF2042003F0D1FC25
:1040C0000DB1012D00D105E040F24A41AFF21820B8
:1040D00003F0C7FC3DB17C482038806920437A4911
:1040E0002039886106E0784820388069A043764905
:1040F0002039886170BD70B504460D467A48044287
:1041000001D104B105E04FF48D61AFF2542003F00A
:10411000A8FC0DB1012D00D105E040F26941AFF2DC
:10412000682003F09EFC3DB167482038C0692043F9
:1041300065492039C86106E063482038C069A0435A
:1041400061492039C86170BD70B504460D466548A7
:10415000044201D104B105E040F2A341AFF2A8202E
:1041600003F07FFC0DB1012D00D105E040F2A44128
:10417000AFF2BC2003F075FC3DB153482038C06855
:10418000204351492039C86006E04F482038C068B4
:10419000A0434D492039C86070BD70B504460D4636
:1041A0005148044201D104B105E040F2C241AFF2EE
:1041B000F82003F056FC0DB1012D00D105E040F2CE
:1041C000C341AFF20C3003F04CFC3DB13E48203807
:1041D000006920433C492039086106E03A4820380C
:1041E0000069A04338492039086170BD10B5044604
:1041F0000CB1012C00D105E040F2D741AFF24830BC
:1042000003F02FFC3948046010BD10B504460CB112
:10421000012C00D105E040F2E441AFF2643003F03C
:1042200020FC3348C46410BD10B504463CB1052CD5
:1042300005D0042C03D0062C01D0072C00D105E0BA
:1042400040F20451AFF2903003F00BFC1E482038CE
:10425000C47110BD1C482038406A40F080701A4973
:1042600020394862704770B504460025012C09D0FA
:10427000022C07D0042C05D0082C03D0102C01D020
:10428000802C00D105E040F27D51AFF2D43003F034
:10429000E8FB0D4820388068204201D0012500E06D
:1042A0000025284670BD10B5044614F0600F01D1FA
:1042B00004B105E040F2AA51AFF2044003F0D1FB93
:1042C00001482038847210BD201002408004424210
:1042D0003C04424200127A0000093D000000002028
:1042E000100000200200C0FF00360181400442425D
:1042F0000000424210B50446F84884422FD0B4F181
:10430000804F2CD0F648844229D0F648844226D0EB
:10431000F548844223D0F548844220D0F4488442B2
:104320001DD0F44884421AD0F348844217D0F34891
:10433000844214D0F248844211D0F24884420ED014
:10434000F14884420BD0F148844208D0F0488442BE
:1043500005D0F048844202D0EF48844200D103E007
:104360007C21EEA003F07DFBDC48844208D10121D2
:10437000C014FFF7E9FE0021E014FFF7E5FEC4E0FA
:10438000B4F1804F08D101210846FFF706FF002154
:104390000120FFF702FFB8E0D148844208D1012193
:1043A0000220FFF7FAFE00210220FFF7F6FEACE044
:1043B000CC48844208D101210420FFF7EEFE002101
:1043C0000420FFF7EAFEA0E0C748844208D101219B
:1043D0000820FFF7E2FE00210820FFF7DEFE94E050
:1043E000C248844208D101211020FFF7D6FE0021E7
:1043F0001020FFF7D2FE88E0BD48844208D1012199
:104400002020FFF7CAFE00212020FFF7C6FE7CE037
:10441000B848844208D101214014FFF795FE0021DD
:104420006014FFF791FE70E0B348844209D1012186
:10443000C804FFF789FE00214FF40020FFF784FE37
:1044400063E0AE48844209D101210805FFF77CFEF4
:1044500000214FF48010FFF777FE56E0A848844211
:1044600009D101214805FFF76FFE00214FF400102C
:10447000FFF76AFE49E0A348844208D101214020A9
:10448000FFF78BFE00214020FFF787FE3DE09E48AE
:10449000844208D101218020FFF77FFE0021802087
:1044A000FFF77BFE31E09948844208D10121801555
:1044B000FFF773FE0021A015FFF76FFE25E094487B
:1044C000844209D101210804FFF73EFE00214FF488
:1044D0008030FFF739FE18E08E48844209D101216F
:1044E0004804FFF731FE00214FF40030FFF72CFEA7
:1044F0000BE08948844208D101218804FFF724FE9B
:1045000000214FF48020FFF71FFE10BD70B5044658
:104510000D460026714884422FD0B4F1804F2CD034
:104520006F48844229D06F48844226D06E48844226
:1045300023D06E48844220D06D4884421DD06D48FF
:1045400084421AD06C48844217D06C48844214D0FC
:104550006B48844211D06B4884420ED06A48844232
:104560000BD06A48844208D06948844205D0694823
:10457000844202D06848844200D103E0E52167A06C
:1045800003F06FFA688858B16888102808D06888E6
:10459000202805D06888402802D06888602800D18B
:1045A00003E0E6215DA003F05CFAE88838B1E88812
:1045B000B0F5807F03D0E888B0F5007F00D103E03C
:1045C000E72156A003F04DFA2688444884420ED0D5
:1045D000484884420BD0B4F1804F08D04048844210
:1045E00005D04048844202D03F48844204D14FF66F
:1045F0008F710E40688806433C48844207D03C488F
:10460000844204D04FF6FF410E40E88806432680DE
:10461000A888A08528882085304884420BD035485A
:10462000844208D03A48844205D03A48844202D0B5
:104630003948844201D1287A20860120A08270BDA9
:104640002DE9F04104460D464FF0000800260027F2
:104650002248844229D0B4F1804F26D02048844299
:1046600023D02048844220D01F4884421DD02148B6
:1046700084421AD02048844217D02048844214D063
:104680001F48844211D01F4884420ED01E488442E5
:104690000BD01E48844208D01D48844205D01D48D6
:1046A000844202D01C48844200D104E04FF48D7152
:1046B0001AA003F0D6F9288870B1288810280BD0EA
:1046C0002888202808D02888302805D02888602805
:1046D00002D0288870283BD140E00000002C014027
:1046E0000004004000080040000C004000100040A2
:1046F0000014004000340140004C014000500140D3
:104700000054014000180040001C00400020004000
:104710000040014000440140004801402E2E5C53FF
:10472000544D3332463130785F537464506572694A
:1047300070685F4472697665725C7372635C7374EF
:104740006D3332663130785F74696D2E630000001E
:1047500040F21B11AFF23C0003F083F9688810B1FE
:104760006888012800D105E04FF48E71AFF2540043
:1047700003F077F9288910B12889022800D105E0D3
:1047800040F21D11AFF26C0003F06BF9208C4FF674
:10479000FE7108402084268CA788B4F818804FF654
:1047A0008F7108EA01084FF6FC7108EA01082888B1
:1047B00040EA0808491C0E402889064368880643D9
:1047C000FE4884420BD0FE48844208D0FD48844213
:1047D00005D0FD48844202D0FC48844244D1A888D8
:1047E00010B1A888042800D105E04FF49D71AFF204
:1047F000D40003F036F9688910B16889082800D11F
:1048000005E040F23B11AFF2EC0003F02AF9E88931
:10481000B0F5007F01D0E88900B905E04FF49E7142
:10482000AFF2081003F01DF9A889B0F5807F01D020
:10483000A88900B905E040F23D11AFF2201003F065
:1048400010F94FF6F7710E4068890643091D0E40B6
:10485000A88806434FF6FF610F404FF6FF510F4007
:10486000A8890743E8890743A780A4F81880E88847
:10487000A0862684BDE8F0812DE9F04105460C466E
:104880004FF0000800260027CC48854217D0B5F12C
:10489000804F14D0CE48854211D0CE4885420ED0EC
:1048A000CD4885420BD0C648854208D0CB488542CA
:1048B00005D0CB48854202D0C248854200D105E0F0
:1048C00040F26D11AFF2AC1003F0CBF8208870B15C
:1048D000208810280BD02088202808D02088302855
:1048E00005D02088602802D02088702800D105E0FB
:1048F0004FF4B771AFF2DC1003F0B3F8608810B179
:104900006088012800D105E040F26F11AFF2F41089
:1049100003F0A7F8208910B12089022800D105E012
:104920004FF4B871AFF20C2003F09BF8288C4FF6CF
:10493000EF71084028842E8CAF88B5F8188048F6AF
:10494000FF7108EA01084FF6FF4108EA01082088D4
:10495000000648EA10484FF6DF710E402089000536
:1049600046EA10466088000546EA104693488542AC
:1049700002D0934885424DD1A08810B1A088042868
:1049800000D105E040F28D11AFF2702003F069F81C
:10499000608910B16089082800D105E04FF4C77123
:1049A000AFF2882003F05DF8E089B0F5007F01D018
:1049B000E08900B905E040F28F11AFF2A02003F0CA
:1049C00050F8A089B0F5807F01D0A08900B905E03A
:1049D0004FF4C871AFF2BC2003F043F84FF67F717B
:1049E0000E406089000546EA10464FF6BF710E4042
:1049F000A088000546EA10464FF6FF310F404FF2FF
:104A0000FF710F40A089800447EA1047E0898004C5
:104A100047EA1047AF80A5F81880E08828872E84E1
:104A2000BDE8F0812DE9F04105460C464FF0000845
:104A300000260027614885420ED0B5F1804F0BD08B
:104A40006348854208D06348854205D06248854264
:104A500002D05B48854200D105E040F2BF11AFF2C1
:104A6000443002F0FEFF208870B1208810280BD05F
:104A70002088202808D02088302805D02088602869
:104A800002D02088702800D105E04FF4E071AFF229
:104A9000743002F0E6FF608810B16088012800D110
:104AA00005E040F2C111AFF28C3002F0DAFF20894C
:104AB00010B12089022800D105E04FF4E171AFF276
:104AC000A43002F0CEFF288C4FF6FF610840288406
:104AD0002E8CAF88B5F81C804FF68F7108EA01085C
:104AE0004FF6FC7108EA0108208840EA08084FF6F2
:104AF000FF510E402089000646EA104660880006F5
:104B000046EA10462D48854202D02D4885424DD1B7
:104B1000A08810B1A088042800D105E04FF4EF71FF
:104B2000AFF2084002F09DFF608910B1608908284B
:104B300000D105E040F2DF11AFF2204002F091FF1A
:104B4000E089B0F5007F01D0E08900B905E04FF4BD
:104B5000F071AFF2384002F084FFA089B0F5807F99
:104B600001D0A08900B905E040F2E111AFF2544054
:104B700002F077FF4FF2FF710E406089000646EAAF
:104B800010464FF6FF310E40A088000646EA104658
:104B90004EF6FF710F404DF6FF710F40A0890005E2
:104BA00047EA1047E089000547EA1047AF80A5F8BB
:104BB0001C80E088A8872E84BDE8F081002C01408D
:104BC00000340140004001400044014000480140E1
:104BD0000004004000080040000C0040004C014070
:104BE000001800402DE9F04104460D46002600273C
:104BF000B046FF4884420ED0B4F1804F0BD0FD4840
:104C0000844208D0FC48844205D0FC48844202D04B
:104C1000FB48844200D105E040F20E21AFF204507F
:104C200002F01FFF288870B1288810280BD0288830
:104C3000202808D02888302805D02888602802D06D
:104C40002888702800D105E040F20F21AFF23450DF
:104C500002F007FF688810B16888012800D105E0DC
:104C60004FF40471AFF24C5002F0FBFE288910B1F2
:104C70002889022800D105E040F21121AFF26450EA
:104C800002F0EFFE208C4EF6FF7108402084278C46
:104C9000B4F80480A68B48F6FF710E404FF6FF4132
:104CA0000E402888000646EA10464DF6FF710F4078
:104CB0002889000747EA10476888000747EA104735
:104CC000CB48844202D0CE48844214D1A889B0F5A2
:104CD000807F01D0A88900B905E040F22E21AFF213
:104CE000C45002F0BEFE4BF6FF7108EA0108A88925
:104CF000800548EA1048A4F80480A683E888A4F850
:104D000040002784BDE8F08170B504460D46B848E0
:104D100084420ED0B4F1804F0BD0B648844208D004
:104D2000B548844205D0B548844202D0B448844294
:104D300000D105E040F67411AFF2206002F091FE60
:104D40002DB1042D03D0082D01D00C2D00D105E08C
:104D500040F67511AFF23C6002F083FEA08B4FF27B
:104D6000FF310840A083A08B290640EA1140A083B0
:104D700070BDF0B50C461546002200210026078CB8
:104D80004EF6FF7C07EA0C070784828B018C27070D
:104D90003E0C40F6FF473A402F0642EA17421F07F3
:104DA00042EA1742924FB8420ED0954FB8420BD00C
:104DB000B0F1804F08D08F4FB84205D08E4FB84227
:104DC00002D08E4FB84206D14DF6FF77394046F4F7
:104DD0008057394305E047F6FF57394044F4805780
:104DE000394382830184F0BD70B504460D46804886
:104DF00084420ED0B4F1804F0BD07E48844208D05C
:104E00007D48844205D07D48844202D07C4884425B
:104E100000D105E040F65E11AFF2007002F021FE15
:104E20002DB1042D03D0082D01D00C2D00D105E0AB
:104E300040F65F11AFF21C7002F013FEA08B4FF62C
:104E4000F3710840A083A08B2843A08370BDF0B508
:104E50000C461546002200210026078C4FF6FF6CF9
:104E600007EA0C070784828B018C27063E0C4FF65D
:104E70000C773A401F0545EA17473A435C4FB84262
:104E80000ED05F4FB8420BD0B0F1804F08D0594FD1
:104E9000B84205D0584FB84202D0584FB84206D158
:104EA0004FF6FF57394046F48077394305E04FF21B
:104EB000FF57394044F48077394382830184F0BD41
:104EC00070B504460D464A48844217D0B4F1804F6D
:104ED00014D04848844211D0474884420ED04748F5
:104EE00084420BD04648844208D04648844205D0CC
:104EF0004548844202D04548844200D105E040F64E
:104F00004811AFF2E87002F0ACFD2DB1042D03D0D2
:104F1000082D01D00C2D00D105E040F64911AFF667
:104F2000040002F09EFD208B4FF2FF3108402083E9
:104F3000208B290640EA1140208370BDF0B50C4655
:104F40001546002200210026078C4FF6EF7C07EA69
:104F50000C070784028B018C27053E0C40F6FF47A7
:104F60003A401F0742EA17422F0642EA1742204FF3
:104F7000B8420ED0224FB8420BD0B0F1804F08D0CB
:104F80001C4FB84205D01C4FB84202D01B4FB8424C
:104F900006D14FF6DF77394046F01007394305E078
:104FA0004FF65F77394044F010073943028301849C
:104FB000F0BD70B504460D460D4884423ED0B4F1B4
:104FC000804F3BD00B48844238D00B48844235D0C8
:104FD0000A48844232D00A4884422FD00948844289
:104FE0002CD00B48844229D00A48844226D013E0B2
:104FF000002C01400004004000080040000C00406C
:1050000000340140004C01400018004000400140C5
:105010000050014000540140F84884420ED0F84846
:1050200084420BD0F748844208D0F748844205D028
:10503000F648844202D0F648844200D105E040F6AA
:105040003211AFF6281002F00CFD2DB1042D03D063
:10505000082D01D00C2D00D105E040F63311AFF63C
:10506000441002F0FEFC208B4FF6F37108402083C1
:10507000208B2843208370BDF0B50C4615460022D6
:105080000021068C4FF6FE773E400684028B018C91
:105090004FF60C7632401E0545EA16463243DD4E89
:1050A000B0420ED0DC4EB0420BD0B0F1804F08D0F1
:1050B000DA4EB04205D0DA4EB04202D0D94EB042FC
:1050C00006D14FF6FD76314044F00106314305E04C
:1050D0004FF6F576314044F00106314302830184F6
:1050E000F0BD70B504460D46288840B128880428D4
:1050F00005D02888082802D028880C2800D105E08F
:105100004FF41371AFF6EC1002F0ABFCA888012845
:1051100005D0A888022802D0A888032800D105E07D
:1051200040F24D21AFF60C2002F09BFCE88840B124
:10513000E888042805D0E888082802D0E8880C28E8
:1051400000D105E040F24E21AFF6302002F089FC9C
:1051500028890F2800DC05E040F24F21AFF64420FB
:1051600002F07FFCAB4884420ED0AB4884420BD0A7
:10517000B4F1804F08D0A948844205D0A8488442A1
:1051800002D0A84884420CD1688810B168880228EF
:1051900000D115E04FF41571AFF6802002F061FCEC
:1051A0000EE0688828B16888022802D068880A283A
:1051B00000D105E04FF41671AFF6A02002F051FCCB
:1051C0002888F0BB9348844229D0B4F1804F26D080
:1051D0009248844223D09248844220D0914884420D
:1051E0001DD08D4884421AD08F48844217D08F48F2
:1051F000844214D08E48844211D0804884420ED01C
:105200007F4884420BD07F48844208D07E48844245
:1052100005D07E48844202D07D48844200D105E01A
:105220004FF41771AFF60C3002F01BFC2B89AA88E3
:1052300069882046FFF720FFE9882046FFF7B9FE7E
:105240007AE0FFE7288804282CD17248844217D0DE
:10525000B4F1804F14D07148844211D07048844218
:105260000ED0704884420BD06B48844208D06E4800
:10527000844205D06148844202D06348844200D110
:1052800005E040F26621AFF66C3002F0EAFB2B89B4
:10529000AA8869882046FFF751FEE9882046FFF773
:1052A0000FFE49E02888082823D15A4884420ED0AE
:1052B000B4F1804F0BD05948844208D058488442FA
:1052C00005D05848844202D05348844200D105E0BA
:1052D0004FF41C71AFF6BC3002F0C3FB2B89AA88D7
:1052E00069882046FFF7B3FDE9882046FFF77CFD7B
:1052F00022E0484884420ED0B4F1804F0BD047489A
:10530000844208D04648844205D04648844202D0B0
:105310004148844200D105E040F27A21AFF60440D2
:1053200002F09FFB2B89AA8869882046FFF721FDA0
:10533000E9882046FFF7E8FC70BD2DE9F0410546FD
:105340000C46002601273348854217D0B5F1804F1F
:1053500014D03248854211D0314885420ED03148B0
:1053600085420BD02C48854208D02F48854205D075
:105370002248854202D02448854200D105E040F20F
:105380009121AFF6684002F06CFB608808B90226F4
:1053900000E00026A088012801D1022700E00127B3
:1053A0002088A0B92389A28861882846FFF764FE77
:1053B000E1882846FFF7FDFD23893A463146284615
:1053C000FFF7BCFDE1882846FFF77AFD13E023894B
:1053D000A28861882846FFF7B1FDE1882846FFF7DB
:1053E0006FFD23893A4631462846FFF745FEE1889E
:1053F0002846FFF7DEFDBDE8F08100000018004000
:10540000001C0040002000400040014000440140DA
:1054100000480140002C01400034014000040040DD
:1054200000080040000C0040004C014000500140CA
:105430000054014070B505460C46FF4885420BD02C
:10544000FE48854208D0FE48854205D0FD48854289
:1054500002D0FD48854200D105E040F2C921AFF6F7
:10546000445002F0FEFA2088B0F5006F01D0208889
:1054700000B905E040F2CA21AFF6605002F0F1FA3F
:105480006088B0F5806F01D0608800B905E040F217
:10549000CB21AFF6785002F0E4FAA08858B1A0888A
:1054A000B0F5807F07D0A088B0F5007F03D0A0883A
:1054B000B0F5407F00D105E04FF43371AFF6A45052
:1054C00002F0CFFA2089B0F5805F01D0208900B9C1
:1054D00005E040F2CD21AFF6BC5002F0C2FA60897F
:1054E00018B16089B0F5005F00D105E040F2CE212F
:1054F000AFF6D85002F0B5FAA089B0F5804F01D0D0
:10550000A08900B905E040F2CF21AFF6F05002F0DB
:10551000A8FA208861880843A1880843E1880843E5
:105520002189084361890843A1890843A5F84400FB
:1055300070BD4FF6FF71818000210180C1804180E4
:10554000017270470021018041808180C18001810A
:1055500041818181C1817047002101804180012109
:1055600081800021C180018170470021018041803C
:105570008180C180018141818181704770B504467D
:105580000D46AD4884422FD0B4F1804F2CD0AF48A7
:10559000844229D0AE48844226D0AE48844223D0EB
:1055A000AD48844220D0AD4884421DD0A3488442F7
:1055B0001AD0AB48844217D0AA48844214D0AA48D3
:1055C000844211D0A94884420ED0A94884420BD00D
:1055D000A848844208D09A48844205D09948844219
:1055E00002D09948844200D105E040F22731AFF65D
:1055F000D46002F036FA0DB1012D00D105E04FF470
:105600004A71AFF6E86002F02CFA25B1208840F02C
:105610000100208004E020884FF6FE7108402080C1
:1056200070BD70B504460D46834884420BD0834854
:10563000844208D08248844205D08248844202D005
:105640008148844200D105E04FF45071AFF63470C8
:1056500002F007FA0DB1012D00D105E040F2413111
:10566000AFF6487002F0FDF935B1B4F8440040F4EB
:105670000040A4F8440005E0B4F84400C0F30E0074
:10568000A4F8440070BD70B504460D4616466A483D
:1056900084422FD0B4F1804F2CD06C48844229D062
:1056A0006B48844226D06B48844223D06A488442A7
:1056B00020D06A4884421DD0604884421AD068488D
:1056C000844217D06748844214D06748844211D07E
:1056D000664884420ED0664884420BD065488442B6
:1056E00008D05748844205D05648844202D05648D4
:1056F000844200D105E040F26931AFF6E07002F07B
:10570000B0F915F47F4F01D105B105E040F26A31DF
:10571000AFF6F87002F0A5F90EB1012E00D104E049
:1057200040F26B31544802F09CF91EB1A089284325
:10573000A08104E0A089E94389B20840A08170BD3E
:1057400070B504460D463C4884422FD0B4F1804FDA
:105750002CD03E48844229D03D48844226D03D4842
:10576000844223D03C48844220D03C4884421DD00F
:10577000324884421AD03A48844217D03948844289
:1057800014D03948844211D0384884420ED0384869
:1057900084420BD03748844208D02948844205D03F
:1057A0002848844202D02848844200D104E040F2D4
:1057B0008E31314802F055F915F47F4F01D105B112
:1057C00004E040F28F312C4802F04BF9A58270BD05
:1057D00070B506460C4615461748864217D0B6F1F6
:1057E000804F14D01948864211D0194886420ED0F5
:1057F000184886420BD01148864208D0104886428D
:1058000005D01048864202D00F48864200D104E0FD
:1058100040F2AA31184802F024F97CB3012C45D09B
:10582000022C43D0032C41D0042C3FD0052C3DD07A
:10583000062C3BD0072C22E0002C01400034014014
:105840000040014000440140004801400004004085
:1058500000080040000C0040001000400014004010
:10586000004C01400050014000540140001800402D
:10587000001C0040002000401C47000816E015D026
:10588000082C13D0092C11D00A2C0FD00B2C0DD0C2
:105890000C2C0BD00D2C09D00E2C07D00F2C05D0C2
:1058A000102C03D0112C01D0122C00D104E040F2B6
:1058B000AB31FB4802F0D5F895B3B5F5807F2FD01A
:1058C000B5F5007F2CD0B5F5407F29D0B5F5806FB8
:1058D00026D0B5F5A06F23D0B5F5C06F20D0B5F5B3
:1058E000E06F1DD0B5F5006F1AD0B5F5106F17D069
:1058F000B5F5206F14D0B5F5306F11D0B5F5406F08
:105900000ED0B5F5506F0BD0B5F5606F08D0B5F57A
:10591000706F05D0B5F5805F02D0B5F5885F00D116
:1059200004E04FF46B71DE4802F09BF844EA050096
:10593000A6F8480070BD70B504460D461646D94815
:1059400084421DD0B4F1804F1AD0D748844217D07A
:10595000D648844214D0D648844211D0D5488442D7
:105960000ED0D54884420BD0D448844208D0D448C5
:10597000844205D0D348844202D0D348844200D127
:1059800004E040F2C531C64802F06BF848F2FF006F
:10599000054201D105B104E040F2C631C04802F031
:1059A00060F80EB1012E00D104E040F2C731BC48CE
:1059B00002F057F81EB1A0892843A08104E0A08915
:1059C000E94389B20840A08170BD10B50446B548CE
:1059D000844217D0B4F1804F14D0B348844211D020
:1059E000B24884420ED0B24884420BD0B3488442BD
:1059F00008D0B648844205D0B548844202D0B048A9
:105A0000844200D104E040F2DE31A54802F029F8DA
:105A100020894FF6F8710840208110BD70B504460A
:105A20000D4600269F48844217D0B4F1804F14D011
:105A30009D48844211D09D4884420ED09C488442A7
:105A40000BD09E48844208D0A048844205D0A0488C
:105A5000844202D09A48844200D104E040F2CF410F
:105A60008F4801F0FEFF6DB1102D0BD0202D09D015
:105A7000302D07D0402D05D0502D03D0602D01D002
:105A8000702D00D104E04FF49A61854801F0E9FFE0
:105A900026894FF68F710E402E43268170BD70B55A
:105AA00004460D467F48844217D0B4F1804F14D08D
:105AB0007D48844211D07D4884420ED07C48844287
:105AC0000BD07E48844208D08048844205D080486C
:105AD000844202D07A48844200D104E040F2F1319D
